{
  "_format": "hh-sol-artifact-1",
  "contractName": "DBLogger",
  "sourceName": "contracts/DBLogger.sol",
  "abi": [
    {
      "anonymous": false,
      "inputs": [
        {
          "indexed": false,
          "internalType": "string",
          "name": "operation",
          "type": "string"
        },
        {
          "indexed": false,
          "internalType": "string",
          "name": "tableName",
          "type": "string"
        },
        {
          "indexed": false,
          "internalType": "string",
          "name": "rowId",
          "type": "string"
        },
        {
          "indexed": false,
          "internalType": "string",
          "name": "dataHash",
          "type": "string"
        },
        {
          "indexed": false,
          "internalType": "uint256",
          "name": "timestamp",
          "type": "uint256"
        }
      ],
      "name": "DBChange",
      "type": "event"
    },
    {
      "inputs": [
        {
          "internalType": "string",
          "name": "operation",
          "type": "string"
        },
        {
          "internalType": "string",
          "name": "tableName",
          "type": "string"
        },
        {
          "internalType": "string",
          "name": "rowId",
          "type": "string"
        },
        {
          "internalType": "string",
          "name": "dataHash",
          "type": "string"
        }
      ],
      "name": "logChange",
      "outputs": [],
      "stateMutability": "nonpayable",
      "type": "function"
    }
  ],
  "bytecode": "0x608060405234801561001057600080fd5b50610319806100206000396000f3fe608060405234801561001057600080fd5b506004361061002b5760003560e01c80634bc816f614610030575b600080fd5b61004a6004803603810190610045919061010c565b61004c565b005b7f177867158264e8ba595fcc15bfbc9de60b9bf2fe2d355c58a39429327866647688888888888888884260405161008b9998979695949392919061026c565b60405180910390a15050505050505050565b600080fd5b600080fd5b600080fd5b600080fd5b600080fd5b60008083601f8401126100cc576100cb6100a7565b5b8235905067ffffffffffffffff8111156100e9576100e86100ac565b5b602083019150836001820283011115610105576101046100b1565b5b9250929050565b6000806000806000806000806080898b03121561012c5761012b61009d565b5b600089013567ffffffffffffffff81111561014a576101496100a2565b5b6101568b828c016100b6565b9850985050602089013567ffffffffffffffff811115610179576101786100a2565b5b6101858b828c016100b6565b9650965050604089013567ffffffffffffffff8111156101a8576101a76100a2565b5b6101b48b828c016100b6565b9450945050606089013567ffffffffffffffff8111156101d7576101d66100a2565b5b6101e38b828c016100b6565b92509250509295985092959890939650565b600082825260208201905092915050565b82818337600083830152505050565b6000601f19601f8301169050919050565b600061023283856101f5565b935061023f838584610206565b61024883610215565b840190509392505050565b6000819050919050565b61026681610253565b82525050565b600060a0820190508181036000830152610287818b8d610226565b9050818103602083015261029c81898b610226565b905081810360408301526102b1818789610226565b905081810360608301526102c6818587610226565b90506102d5608083018461025d565b9a995050505050505050505056fea26469706673582212203c62a1b196d6a7aa5df55adef3c14c68e5aed9b14dd6fea63b043ca389a8acc864736f6c63430008140033",
  "linkReferences": {},
  "deployedLinkReferences": {}
}