{
  "_format": "hh-sol-artifact-1",
  "contractName": "DBLogger",
  "sourceName": "contracts/DBLogger.sol",
  "abi": [
    {
      "anonymous": false,
      "inputs": [
        {
          "indexed": false,
          "internalType": "string",
          "name": "operation",
          "type": "string"
        },
        {
          "indexed": false,
          "internalType": "string",
          "name": "tableName",
          "type": "string"
        },
        {
          "indexed": false,
          "internalType": "string",
          "name": "rowId",
          "type": "string"
        },
        {
          "indexed": false,
          "internalType": "string",
          "name": "dataHash",
          "type": "string"
        },
        {
          "indexed": false,
          "internalType": "string",
          "name": "data",
          "type": "string"
        },
        {
          "indexed": false,
          "internalType": "uint256",
          "name": "timestamp",
          "type": "uint256"
        }
      ],
      "name": "DBChange",
      "type": "event"
    },
    {
      "inputs": [
        {
          "internalType": "string",
          "name": "operation",
          "type": "string"
        },
        {
          "internalType": "string",
          "name": "tableName",
          "type": "string"
        },
        {
          "internalType": "string",
          "name": "rowId",
          "type": "string"
        },
        {
          "internalType": "string",
          "name": "dataHash",
          "type": "string"
        },
        {
          "internalType": "string",
          "name": "data",
          "type": "string"
        }
      ],
      "name": "logChange",
      "outputs": [],
      "stateMutability": "nonpayable",
      "type": "function"
    }
  ],
  "bytecode": "0x608060405234801561001057600080fd5b5061036a806100206000396000f3fe608060405234801561001057600080fd5b506004361061002b5760003560e01c8063300afc1614610030575b600080fd5b61004a60048036038101906100459190610112565b61004c565b005b7f5beaf84564a0e24958bc99ad73aae23e4890ce683bb5b78755956dda14a13c4b8a8a8a8a8a8a8a8a8a8a4260405161008f9b9a999897969594939291906102a6565b60405180910390a150505050505050505050565b600080fd5b600080fd5b600080fd5b600080fd5b600080fd5b60008083601f8401126100d2576100d16100ad565b5b8235905067ffffffffffffffff8111156100ef576100ee6100b2565b5b60208301915083600182028301111561010b5761010a6100b7565b5b9250929050565b60008060008060008060008060008060a08b8d031215610135576101346100a3565b5b60008b013567ffffffffffffffff811115610153576101526100a8565b5b61015f8d828e016100bc565b9a509a505060208b013567ffffffffffffffff811115610182576101816100a8565b5b61018e8d828e016100bc565b985098505060408b013567ffffffffffffffff8111156101b1576101b06100a8565b5b6101bd8d828e016100bc565b965096505060608b013567ffffffffffffffff8111156101e0576101df6100a8565b5b6101ec8d828e016100bc565b945094505060808b013567ffffffffffffffff81111561020f5761020e6100a8565b5b61021b8d828e016100bc565b92509250509295989b9194979a5092959850565b600082825260208201905092915050565b82818337600083830152505050565b6000601f19601f8301169050919050565b600061026c838561022f565b9350610279838584610240565b6102828361024f565b840190509392505050565b6000819050919050565b6102a08161028d565b82525050565b600060c08201905081810360008301526102c1818d8f610260565b905081810360208301526102d6818b8d610260565b905081810360408301526102eb81898b610260565b90508181036060830152610300818789610260565b90508181036080830152610315818587610260565b905061032460a0830184610297565b9c9b50505050505050505050505056fea26469706673582212207a78ea5e3871577bb5cc794a0d24f8c987b71ec60a967788bc1e547abd201a8e64736f6c63430008140033",
  "linkReferences": {},
  "deployedLinkReferences": {}
}